:020000040800F2
:10000000008001203D140008591300085F13000808
:10001000651300086B13000871130008000000004E
:10002000000000000000000000000000771300083E
:10003000851300080000000093130008A1130008B6
:100040008D1400088D1400088D1400088D1400080C
:100050008D1400088D1400088D1400088D140008FC
:100060008D1400088D1400088D1400088D140008EC
:100070008D1400088D1400088D1400088D140008DC
:100080008D1400088D1400088D1400080000000075
:100090000000000000000000000000008D140008B7
:1000A0008D1400088D1400088D1400088D140008AC
:1000B0008D1400088D1400088D1400088D1400089C
:1000C0008D1400088D1400088D1400088D1400088C
:1000D0008D1400088D1400088D1400080000000025
:1000E0008D1400088D1400088D1400080000000015
:1000F0000000000000000000000000008D14000857
:10010000000000008D1400088D1400088D140008F4
:1001100000000000000000000000000000000000DF
:100120008D1400088D1400088D1400088D1400082B
:100130008D14000800000000000000000000000016
:100140000000000000000000000000008D14000806
:100150008D1400088D1400088D1400088D140008FB
:100160008D1400088D14000800000000000000003D
:10017000000000000000000000000000000000007F
:10018000000000008D1400080000000000000000C6
:040190008D140008C2
:1001A00010B5054C237833B9044B13B10448AFF3B1
:1001B00000800123237010BD7000002000000000AB
:1001C0009043000808B5034B1BB103490348AFF344
:1001D000008008BD0000000074000020904300086B
:1001E00001F0FF01102A2BDB10F0070F08D010F8E8
:1001F000013B013A8B422DD010F0070F42B3F6D1EC
:10020000F0B441EA012141EA014122F007047FF004
:1002100000070023F0E80256083C85EA010586EA5B
:10022000010685FA47F5A3FA87F586FA47F6A5FA97
:1002300087F68EB9EED1F0BC01F0FF0102F00702A3
:1002400032B110F8013B013A83EA010313B1F8D14E
:100250000020704701387047002D06BF354603382F
:10026000073815F0010F07D1013015F4807F02BF68
:10027000013015F4C03F0130F0BC0138704700BFB9
:1002800070B54FF0FF0C4CF4E06C1CEA11541DBF2C
:100290001CEA135594EA0C0F95EA0C0F00F0DEF8F7
:1002A0002C4481EA030621EA4C5123EA4C5350EADC
:1002B000013518BF52EA033541F4801143F480132D
:1002C00038D0A0FB02CE4FF00005E1FB02E506F0BE
:1002D0000042E0FB03E54FF00006E1FB03569CF013
:1002E000000F18BF4EF0010EA4F1FF04B6F5007F19
:1002F00064F5407404D25FEA4E0E6D4146EB06068B
:1003000042EAC62141EA55514FEAC52040EA5E5013
:100310004FEACE2EB4F1FD0C88BFBCF5E06F1ED8BD
:10032000BEF1004F08BF5FEA500E50F1000041EBF4
:10033000045170BD06F0004646EA010140EA0200A1
:1003400081EA0301B4EB5C04C2BFD4EB0C0541EAC3
:10035000045170BD41F480114FF0000E013C00F3D8
:10036000AB8014F1360FDEBF002001F0004170BDFC
:10037000C4F10004203C35DA0C341BDC04F1140415
:10038000C4F1200500FA05F320FA04F001FA05F2A1
:1003900040EA020001F0004221F0004110EBD3706E
:1003A00021FA04F642EB06015EEA430E08BF20EA9A
:1003B000D37070BDC4F10C04C4F1200500FA04F33D
:1003C00020FA05F001FA04F240EA020001F00041CF
:1003D00010EBD37041F100015EEA430E08BF20EA42
:1003E000D37070BDC4F1200500FA05F24EEA020E8A
:1003F00020FA04F301FA05F243EA020321FA04F0B9
:1004000001F0004121FA04F220EA020000EBD3706F
:100410005EEA430E08BF20EAD37070BD94F0000F6F
:100420000FD101F00046400041EB010111F4801FA3
:1004300008BF013CF7D041EA060195F0000F18BF54
:10044000704703F00046520043EB030313F4801F90
:1004500008BF013DF7D043EA0603704794EA0C0F4A
:100460000CEA135518BF95EA0C0F0CD050EA410660
:1004700018BF52EA4306D1D181EA030101F00041DD
:100480004FF0000070BD50EA410606BF1046194605
:1004900052EA430619D094EA0C0F02D150EA013611
:1004A00013D195EA0C0F05D152EA03361CBF104652
:1004B00019460AD181EA030101F0004141F0FE41F1
:1004C00041F470014FF0000070BD41F0FE4141F475
:1004D000780170BD81F0004102E000BF83F000436D
:1004E00030B54FEA41044FEA430594EA050F08BFCF
:1004F00090EA020F1FBF54EA000C55EA020C7FEA93
:10050000645C7FEA655C00F0E2804FEA5454D4EB0F
:100510005555B8BF6D420CDD2C4480EA020281EAD9
:10052000030382EA000083EA010180EA020281EA11
:100530000303362D88BF30BD11F0004F4FEA013163
:100540004FF4801C4CEA113102D0404261EB410172
:1005500013F0004F4FEA03334CEA133302D05242F8
:1005600063EB430394EA050F00F0A780A4F10104B4
:10057000D5F1200E0DDB02FA0EFC22FA05F28018EE
:1005800041F1000103FA0EF2801843FA05F35941D4
:100590000EE0A5F120050EF1200E012A03FA0EFC53
:1005A00028BF4CF0020C43FA05F3C01851EBE3717D
:1005B00001F0004507D54FF0000EDCF1000C7EEB9A
:1005C00000006EEB0101B1F5801F1BD3B1F5001FD8
:1005D0000CD349085FEA30004FEA3C0C04F10104F7
:1005E0004FEA445212F5800F80F09A80BCF1004F20
:1005F00008BF5FEA500C50F1000041EB045141EAA2
:10060000050130BD5FEA4C0C404141EB0101013C6A
:1006100028BFB1F5801FE9D291F0000F04BF014659
:100620000020B1FA81F308BF2033A3F10B03B3F12B
:1006300020020CDA0C3208DD02F1140CC2F10C02BB
:1006400001FA0CF021FA02F10CE002F11402D8BF19
:10065000C2F1200C01FA02F120FA0CFCDCBF41EAE5
:100660000C019040E41AA2BF01EB0451294330BDB4
:100670006FEA04041F3C1CDA0C340EDC04F1140491
:10068000C4F1200220FA04F001FA02F340EA030068
:1006900021FA04F345EA030130BDC4F10C04C4F1AE
:1006A000200220FA02F001FA04F340EA030029468E
:1006B00030BD21FA04F0294630BD94F0000F83F4D8
:1006C000801306BF81F480110134013D4EE77FEABB
:1006D000645C18BF7FEA655C29D094EA050F08BF07
:1006E00090EA020F05D054EA000C04BF19461046E8
:1006F00030BD91EA030F1EBF0021002030BD5FEA2C
:10070000545C05D14000494128BF41F0004130BD53
:1007100014F580043CBF01F5801130BD01F00045A7
:1007200045F0FE4141F470014FF0000030BD7FEA1A
:10073000645C1ABF194610467FEA655C1CBF0B4615
:10074000024650EA013406BF52EA033591EA030F2C
:1007500041F4002130BD00BF90F0000F04BF002124
:10076000704730B54FF4806404F132044FF0000557
:100770004FF0000150E700BF90F0000F04BF0021D0
:10078000704730B54FF4806404F1320410F0004536
:1007900048BF40424FF000013EE700BF42004FEA31
:1007A000E2014FEA31014FEA02701FBF12F07F43AE
:1007B00093F07F4F81F06051704732F07F4208BF65
:1007C000704793F07F4F04BF41F40021704730B56C
:1007D0004FF4607401F0004521F000411CE700BFB8
:1007E00050EA010208BF704730B54FF000050AE03B
:1007F00050EA010208BF704730B511F0004502D53C
:10080000404261EB41014FF4806404F132045FEA3D
:10081000915C3FF4D8AE4FF003025FEADC0C18BFE6
:1008200003325FEADC0C18BF033202EBDC02C2F1D8
:10083000200300FA03FC20FA02F001FA03FE40EA6A
:100840000E0021FA02F11444BDE600BF4FEA410256
:1008500012F5001215D211D56FF47873B3EB625212
:1008600012D94FEAC12343F0004343EA505311F039
:10087000004F23FA02F018BF404270474FF00000CB
:10088000704750EA013005D111F0004008BF6FF009
:10089000004070474FF00000704700BF53B94AB99D
:1008A000002908BF00281CBF4FF0FF314FF0FF3078
:1008B00000F074B9ADF1080C6DE904CE00F006F853
:1008C000DDF804E0DDE9022304B070472DE9F047CC
:1008D000089D04468E46002B4DD18A42944669D924
:1008E000B2FA82F252B101FA02F3C2F1200120FA07
:1008F00001F10CFA02FC41EA030E94404FEA1C4855
:10090000210CBEFBF8F61FFA8CF708FB16E341EA50
:10091000034306FB07F199420AD91CEB030306F1D6
:10092000FF3080F01F81994240F21C81023E6344F7
:100930005B1AA4B2B3FBF8F008FB103344EA03449B
:1009400000FB07F7A7420AD91CEB040400F1FF33B0
:1009500080F00A81A74240F207816444023840EAED
:100960000640E41B00261DB1D4400023C5E9004326
:100970003146BDE8F0878B4209D9002D00F0EF80A9
:100980000026C5E9000130463146BDE8F087B3FADC
:1009900083F6002E4AD18B4202D3824200F2F980C4
:1009A000841A61EB030301209E46002DE0D0C5E9C7
:1009B000004EDDE702B9FFDEB2FA82F2002A40F013
:1009C0009280A1EB0C014FEA1C471FFA8CFE012616
:1009D000200CB1FBF7F307FB131140EA01410EFBBA
:1009E00003F0884208D91CEB010103F1FF3802D261
:1009F000884200F2CB804346091AA4B2B1FBF7F05B
:100A000007FB101144EA01440EFB00FEA64508D97D
:100A10001CEB040400F1FF3102D2A64500F2BB80BA
:100A20000846A4EB0E0440EA03409CE7C6F1200709
:100A3000B34022FA07FC4CEA030C20FA07F401FA4F
:100A400006F31C43F9404FEA1C4900FA06F3B1FBD8
:100A5000F9F8200C1FFA8CFE09FB181140EA01413D
:100A600008FB0EF0884202FA06F20BD91CEB0101DA
:100A700008F1FF3A80F08880884240F28580A8F132
:100A800002086144091AA4B2B1FBF9F009FB101184
:100A900044EA014100FB0EFE8E4508D91CEB010122
:100AA00000F1FF346CD28E456AD90238614440EAC5
:100AB0000840A0FB0294A1EB0E01A142C846A64645
:100AC00056D353D05DB1B3EB080261EB0E0101FACE
:100AD00007F722FA06F3F1401F43C5E9007100262B
:100AE0003146BDE8F087C2F12003D8400CFA02FC81
:100AF00021FA03F3914001434FEA1C471FFA8CFE91
:100B0000B3FBF7F007FB10360B0C43EA064300FB80
:100B10000EF69E4204FA02F408D91CEB030300F11E
:100B2000FF382FD29E422DD9023863449B1B89B2D5
:100B3000B3FBF7F607FB163341EA034106FB0EF35E
:100B40008B4208D91CEB010106F1FF3816D28B420B
:100B500014D9023E6144C91A46EA004638E72E46D7
:100B6000284605E70646E3E61846F8E64B45A9D2CF
:100B7000B9EB020864EB0C0E0138A3E74646EAE73E
:100B8000204694E74046D1E7D0467BE7023B6144EC
:100B900032E7304609E76444023842E7704700BF55
:100BA00080B594B002AFF860B9607A6000F0D6FC0E
:100BB000024607F110007B680193BB680093FB6855
:100BC000064902F077FF07F1100164233722044839
:100BD00002F0C9FB00BF4837BD4680BDA8430008EE
:100BE0001C01002000000000B0B592B000AF00F082
:100BF0004FFC00F0F5F800F051FA00F051F900F068
:100C0000CFF900F021FA3C21714801F00DFE0021DE
:100C1000704801F0B3FC04216E4801F0AFFC6D4850
:100C200001F0F8FB68A3D3E90023C7E90A234FF0DA
:100C300000024FF00003C7E908234FF000024FF015
:100C40000003C7E906234FF000024FF00003C7E995
:100C500004234FF000024FF00003C7E910234FF0C8
:100C600000024FF00003C7E902230023FB63FA23CD
:100C70007B60FA23BB6300237B6300233B60564BFE
:100C80005B6AFB63FB6B4FF6E852934201DD002386
:100C9000FB63FB6BC3F1FA037B607868FFF76CFDC5
:100CA00002460B46D7E90A01FFF7EAFA02460B466D
:100CB000C7E904237A68BB6BD21A3B6892FBF3F353
:100CC0001846FFF759FD02460B46D7E90601FFF724
:100CD000D7FA02460B46C7E902237868FFF74CFDB6
:100CE00004460D467868FFF747FDD7E90823FFF76C
:100CF000C7FA02460B4620462946FFF7C1FA0246CC
:100D00000B46D7E91001FFF7EBFB02460B46C7E99C
:100D10001023D7E90223D7E91001FFF7E1FB0246D0
:100D20000B4610461946D7E90423FFF7D9FB0246C4
:100D30000B4610461946FFF789FD03467B637B6B24
:100D4000642B01DD64237B637B6B13F1640F02DA98
:100D50006FF063037B637B6B002B13DD01224FF489
:100D600080711E4800F094FE1A4B1B687A6B5A6320
:100D700000222021194800F08BFE164B1B68002230
:100D80009A6315E07B6B5B427B6301222021134851
:100D900000F07EFE0F4B1B6800225A6300224FF4C6
:100DA00080710E4800F074FE0A4B1B687A6B9A63E0
:100DB0007A68796BF86BFFF7F3FE7B68BB633B687F
:100DC000184600F0D7FB5AE71F85EB51B81EF53FD8
:100DD000D40000208C0000200008004000000240E9
:100DE00080B594B000AF07F12003302200211846EF
:100DF00002F058FE07F10C0300221A605A609A6054
:100E0000DA601A610023BB60234B1B6C224A43F05B
:100E100080531364204B1B6C03F08053BB60BB6892
:100E200000237B601D4B1B6823F440431B4A43F4A3
:100E300000431360194B1B6803F440437B607B68DD
:100E400002233B620123FB6210233B630023BB634D
:100E500007F12003184600F035FE0346002B01D0B1
:100E600000F060F90F23FB6000233B6100237B61EE
:100E70000023BB610023FB6107F10C03002118462E
:100E800001F098F80346002B01D000F04BF900BFA9
:100E90005037BD4680BD00BF0038024000700040A2
:100EA00080B58EB000AF07F1280300221A605A60A7
:100EB0009A60DA6007F1200300221A605A603B1D35
:100EC00000221A605A609A60DA601A615A619A6167
:100ED000314B324A1A60304B9F225A602E4B00220F
:100EE0009A602D4B6422DA602B4B00221A612A4B48
:100EF00000229A61284801F03DFA0346002B01D0F8
:100F000000F010F94FF48053BB6207F12803194633
:100F1000214801F0D9FD0346002B01D000F002F971
:100F20001D4801F0D1FA0346002B01D000F0FAF879
:100F300000233B6200237B6207F120031946164819
:100F400002F056F90346002B01D000F0EBF86023C5
:100F50007B600023BB600023FB6000237B613B1DA3
:100F6000002219460C4801F0EDFC0346002B01D08D
:100F700000F0D8F83B1D04221946074801F0E2FCB6
:100F80000346002B01D000F0CDF8034800F062F9D1
:100F900000BF3837BD4680BD8C00002000040040F3
:100FA00080B58CB000AF07F10C0324220021184655
:100FB00002F078FD3B1D00221A605A60204B214A46
:100FC0001A601F4B00225A601D4B00229A601C4B76
:100FD0004FF6FF72DA601A4B00221A61184B00229A
:100FE0009A610123FB6000233B6101237B610023A5
:100FF000BB610023FB6100233B6201237B62002372
:10100000BB620023FB6207F10C0319460C4801F098
:1010100065FB0346002B01D000F084F800237B60C1
:101020000023BB603B1D1946054802F0E1F803466A
:10103000002B01D000F076F800BF3037BD4680BDF0
:10104000D40000200008004080B500AF114B124AC8
:101050001A60104B4FF4E1325A600E4B00229A6036
:101060000C4B0022DA600B4B00221A61094B0C2258
:101070005A61084B00229A61064B0022DA6105484A
:1010800002F024F90346002B01D000F04BF800BF1A
:1010900080BD00BF1C0100200044004080B588B026
:1010A00000AF07F10C0300221A605A609A60DA6000
:1010B0001A610023BB60194B1B6B184A43F00103F4
:1010C0001363164B1B6B03F00103BB60BB6800236B
:1010D0007B60124B1B6B114A43F0020313630F4BEF
:1010E0001B6B03F002037B607B6800224FF490715E
:1010F0000B4800F0CDFC4FF49073FB6001233B6183
:1011000000237B610023BB6107F10C0319460448EF
:1011100000F03AFB00BF2037BD4680BD00380240DA
:101120000000024080B400AF72B600BFFEE70000CE
:1011300080B483B000AF00237B60104B5B6C0F4A20
:1011400043F4804353640D4B5B6C03F480437B603A
:101150007B6800233B60094B1B6C084A43F08053BB
:101160001364064B1B6C03F080533B603B6800BF6D
:101170000C37BD465DF8047B704700BF0038024065
:1011800080B485B000AF78607B681B680B4A9342DF
:101190000DD10023FB600A4B1B6C094A43F002038C
:1011A0001364074B1B6C03F00203FB60FB6800BF7A
:1011B0001437BD465DF8047B704700BF0004004053
:1011C0000038024080B58AB000AF786007F11403A0
:1011D00000221A605A609A60DA601A617B681B68A4
:1011E000194A93422BD100233B61184B1B6C174AC1
:1011F00043F004031364154B1B6C03F004033B61C1
:101200003B690023FB60114B1B6B104A43F0020348
:1012100013630E4B1B6B03F00203FB60FB68C023E0
:101220007B610223BB610123FB6100233B6202233C
:101230007B6207F114031946054800F0A5FA00BFC8
:101240002837BD4680BD00BF00080040003802407E
:101250000004024080B588B000AF786007F10C034D
:1012600000221A605A609A60DA601A617B681B6813
:10127000124A93421DD10023BB60114B1B6B104AD5
:1012800043F0010313630E4B1B6B03F00103BB60C0
:10129000BB68C023FB6002233B6100237B6100230A
:1012A000BB610223FB6107F10C031946054800F0FE
:1012B0006BFA00BF2037BD4680BD00BF0004004070
:1012C000003802400000024080B58AB000AF78606C
:1012D00007F1140300221A605A609A60DA601A61FA
:1012E0007B681B68194A93422BD100233B61184B42
:1012F0001B6C174A43F400331364154B1B6C03F447
:1013000000333B613B690023FB60114B1B6B104AB0
:1013100043F0010313630E4B1B6B03F00103FB60EF
:10132000FB680C237B610223BB610023FB61032369
:101330003B6207237B6207F114031946054800F05E
:1013400023FA00BF2837BD4680BD00BF00440040DF
:10135000003802400000024080B400AFFEE780B4D5
:1013600000AFFEE780B400AFFEE780B400AFFEE759
:1013700080B400AFFEE780B400AF00BFBD465DF8AB
:10138000047B704780B400AF00BFBD465DF8047BAE
:10139000704780B400AF00BFBD465DF8047B704766
:1013A00080B500AF00F0C6F800BF80BD80B586B044
:1013B00000AF7860144A154BD31A7B617B693B619F
:1013C000134B1B68002B02D1114B124A1A60104BB1
:1013D0001A687B6813443A699A4207D202F038FBD4
:1013E00003460C221A604FF0FF3309E0084B1B68DC
:1013F000FB60074B1A687B681344054A1360FB685F
:1014000018461837BD4680BD00800120000400004A
:10141000600100207801002080B400AF064BD3F8B3
:101420008830054A43F47003C2F8883000BFBD46D7
:101430005DF8047B704700BF00ED00E0DFF834D0BA
:101440000D480E490E4A002302E0D458C45004331C
:10145000C4188C42F9D30B4A0B4C002301E01360F3
:101460000432A242FBD3FFF7D7FF02F0F7FAFFF7EF
:10147000BBFB7047008001200000002070000020AE
:101480001C4400087000002078010020FEE70000E6
:1014900080B500AF0E4B1B680D4A43F40073136018
:1014A0000B4B1B680A4A43F480631360084B1B68AC
:1014B000074A43F480731360032000F031F90F20D2
:1014C00000F008F8FFF734FE0023184680BD00BF87
:1014D000003C024080B582B000AF7860124B1A68C1
:1014E000124B1B7819464FF47A73B3FBF1F3B2FB3E
:1014F000F3F3184600F03BF90346002B01D001231B
:101500000EE07B680F2B0AD8002279684FF0FF307D
:1015100000F011F9064A7B681360002300E0012304
:1015200018460837BD4680BD000000200800002096
:101530000400002080B400AF064B1B781A46064B0F
:101540001B681344044A136000BFBD465DF8047B6A
:10155000704700BF080000206401002080B400AF85
:10156000034B1B681846BD465DF8047B704700BFFF
:101570006401002080B584B000AF7860FFF7EEFF13
:10158000B8607B68FB60FB68B3F1FF3F05D00A4B96
:101590001B781A46FB681344FB6000BFFFF7DEFFB1
:1015A0000246BB68D31AFA689A42F7D800BF00BF58
:1015B0001037BD4680BD00BF0800002080B485B054
:1015C00000AF78607B6803F00703FB600C4BDB68BF
:1015D000BB60BA684FF6FF031340BB60FB681A029A
:1015E000BB68134343F0BF6343F40033BB60044A5A
:1015F000BB68D36000BF1437BD465DF8047B7047FD
:1016000000ED00E080B400AF044BDB681B0A03F080
:1016100007031846BD465DF8047B704700ED00E007
:1016200080B483B000AF03463960FB7197F907308F
:10163000002B0ADB3B68DAB20C4997F9073012013C
:10164000D2B20B4483F800230AE03B68DAB20849BF
:10165000FB7903F00F03043B1201D2B20B441A765C
:1016600000BF0C37BD465DF8047B704700E100E029
:1016700000ED00E080B489B000AFF860B9607A6036
:10168000FB6803F00703FB61FB69C3F10703042B4D
:1016900028BF0423BB61FB690433062B02D9FB6915
:1016A000033B00E000237B614FF0FF32BB6902FA8D
:1016B00003F3DA43BB681A407B699A404FF0FF316D
:1016C0007B6901FA03F3D9437B680B401343184647
:1016D0002437BD465DF8047B7047000080B582B0BA
:1016E00000AF78607B68013BB3F1807F01D30123B9
:1016F0000FE00A4A7B68013B53600F214FF0FF3037
:10170000FFF78EFF054B00229A60044B07221A60F8
:10171000002318460837BD4680BD00BF10E000E03A
:1017200080B582B000AF78607868FFF747FF00BFF0
:101730000837BD4680BD80B586B000AF0346B960AE
:101740007A60FB7300237B61FFF75CFF78617A6846
:10175000B9687869FFF78EFF024697F90F30114696
:101760001846FFF75DFF00BF1837BD4680BD80B546
:1017700082B000AF78607868FFF7B0FF0346184684
:101780000837BD4680BD000080B489B000AF7860E6
:10179000396000237B6100233B610023BB61002390
:1017A000FB6159E10122FB6902FA03F37B613B68AB
:1017B0001B687A6913403B613A697B699A4240F041
:1017C00048813B685B6803F00303012B05D03B684D
:1017D0005B6803F00303022B30D17B689B68BB611D
:1017E000FB695B00032202FA03F3DB43BA6913408F
:1017F000BB613B68DA68FB695B0002FA03F3BA6914
:101800001343BB617B68BA699A607B685B68BB61A4
:101810000122FB6902FA03F3DB43BA691340BB619F
:101820003B685B681B0903F00102FB6902FA03F3E2
:10183000BA691343BB617B68BA695A603B685B68ED
:1018400003F00303032B17D07B68DB68BB61FB69E4
:101850005B00032202FA03F3DB43BA691340BB6166
:101860003B689A68FB695B0002FA03F3BA691343A9
:10187000BB617B68BA69DA603B685B6803F00303AD
:10188000022B23D1FB69DA087B68083253F8223037
:10189000BB61FB6903F007039B000F2202FA03F30D
:1018A000DB43BA691340BB613B681A69FB6903F00B
:1018B00007039B0002FA03F3BA691343BB61FB6998
:1018C000DA087B680832B96943F822107B681B6824
:1018D000BB61FB695B00032202FA03F3DB43BA69D5
:1018E0001340BB613B685B6803F00302FB695B006C
:1018F00002FA03F3BA691343BB617B68BA691A60E1
:101900003B685B6803F44033002B00F0A2800023A7
:10191000FB60574B5B6C564A43F480435364544B13
:101920005B6C03F48043FB60FB68524AFB699B08D5
:10193000023352F82330BB61FB6903F003039B00C1
:101940000F2202FA03F3DB43BA691340BB617B68E1
:10195000494A934219D07B68484A934213D07B6826
:10196000474A93420DD07B68464A934207D07B6832
:10197000454A934201D1042308E0072306E00323EC
:1019800004E0022302E0012300E00023FA6902F0F0
:10199000030292009340BA691343BB613549FB6966
:1019A0009B080233BA6941F82320384B9B68BB611E
:1019B0003B69DB43BA691340BB613B685B6803F476
:1019C0008013002B03D0BA693B691343BB612F4AD4
:1019D000BB6993602D4BDB68BB613B69DB43BA6934
:1019E0001340BB613B685B6803F40013002B03D01A
:1019F000BA693B691343BB61244ABB69D360234B7B
:101A00005B68BB613B69DB43BA691340BB613B6800
:101A10005B6803F40033002B03D0BA693B691343BE
:101A2000BB611A4ABB695360184B1B68BB613B69B9
:101A3000DB43BA691340BB613B685B6803F48033E6
:101A4000002B03D0BA693B691343BB610F4ABB69E2
:101A50001360FB690133FB61FB690F2B7FF6A2AEBC
:101A600000BF00BF2437BD465DF8047B704700BF50
:101A700000380240003801400000024000040240EB
:101A800000080240000C024000100240003C0140EF
:101A900080B483B000AF78600B467B8013467B70C8
:101AA0007B78002B03D07A887B689A6103E07B887F
:101AB0001A047B689A6100BF0C37BD465DF8047B51
:101AC0007047000080B586B000AF78607B68002B5F
:101AD00001D1012367E27B681B6803F00103002B3F
:101AE00075D0884B9B6803F00C03042B0CD0854BFE
:101AF0009B6803F00C03082B12D1824B5B6803F444
:101B00008003B3F5800F0BD17E4B1B6803F40033C9
:101B1000002B5BD07B685B68002B57D1012342E22E
:101B20007B685B68B3F5803F06D1764B1B68754ACE
:101B300043F4803313601DE07B685B68B3F5A02F2E
:101B40000CD1704B1B686F4A43F4802313606D4BBC
:101B50001B686C4A43F4803313600BE0694B1B68CD
:101B6000684A23F480331360664B1B68654A23F48C
:101B7000802313607B685B68002B13D0FFF7EEFCBB
:101B8000386108E0FFF7EAFC02463B69D31A642B90
:101B900001D9032307E25B4B1B6803F40033002BDE
:101BA000F0D014E0FFF7DAFC386108E0FFF7D6FC6C
:101BB00002463B69D31A642B01D90323F3E1514B4D
:101BC0001B6803F40033002BF0D100E000BF7B68FA
:101BD0001B6803F00203002B63D04A4B9B6803F0A1
:101BE0000C03002B0BD0474B9B6803F00C03082B16
:101BF0001CD1444B5B6803F48003002B16D1414B8E
:101C00001B6803F00203002B05D07B68DB68012B07
:101C100001D00123C7E13B4B1B6823F0F8027B682E
:101C20001B69DB00374913430B603AE07B68DB68D4
:101C3000002B20D0344B01221A60FFF78FFC386153
:101C400008E0FFF78BFC02463B69D31A022B01D94F
:101C50000323A8E12B4B1B6803F00203002BF0D0F9
:101C6000284B1B6823F0F8027B681B69DB002549C1
:101C700013430B6015E0244B00221A60FFF76EFC43
:101C8000386108E0FFF76AFC02463B69D31A022B71
:101C900001D9032387E11B4B1B6803F00203002BD0
:101CA000F0D17B681B6803F00803002B36D07B68FB
:101CB0005B69002B16D0154B01221A60FFF74EFC12
:101CC000386108E0FFF74AFC02463B69D31A022B51
:101CD00001D9032367E10B4B5B6F03F00203002B79
:101CE000F0D01BE0094B00221A60FFF737FC386187
:101CF0000EE0FFF733FC02463B69D31A022B07D9EB
:101D0000032350E10038024000004742800E474262
:101D1000884B5B6F03F00203002BEAD17B681B68E2
:101D200003F00403002B00F097800023FB75814B28
:101D30001B6C03F08053002B0FD10023BB607D4B45
:101D40001B6C7C4A43F0805313647A4B1B6C03F08A
:101D50008053BB60BB680123FB75774B1B6803F4A2
:101D60008073002B18D1744B1B68734A43F4807343
:101D70001360FFF7F3FB386108E0FFF7EFFB024663
:101D80003B69D31A022B01D903230CE16A4B1B6870
:101D900003F48073002BF0D07B689B68012B06D185
:101DA000644B1B6F634A43F0010313671CE07B68BD
:101DB0009B68052B0CD15F4B1B6F5E4A43F00403FD
:101DC00013675C4B1B6F5B4A43F0010313670BE027
:101DD000584B1B6F574A23F001031367554B1B6F7A
:101DE000544A23F0040313677B689B68002B15D0CB
:101DF000FFF7B4FB38610AE0FFF7B0FB02463B692E
:101E0000D31A41F28832934201D90323CBE0494BE4
:101E10001B6F03F00203002BEED014E0FFF79EFBD4
:101E200038610AE0FFF79AFB02463B69D31A41F298
:101E30008832934201D90323B5E03E4B1B6F03F078
:101E40000203002BEED1FB7D012B05D1394B1B6C1E
:101E5000384A23F0805313647B689B69002B00F0A1
:101E6000A180344B9B6803F00C03082B5CD07B688B
:101E70009B69022B41D1314B00221A60FFF76EFBA8
:101E8000386108E0FFF76AFB02463B69D31A022B70
:101E900001D9032387E0274B1B6803F00073002B55
:101EA000F0D17B68DA697B681B6A1A437B685B6ADE
:101EB0009B011A437B689B6A5B08013B1B041A4326
:101EC0007B68DB6A1B061B4913434B601B4B0122DB
:101ED0001A60FFF743FB386108E0FFF73FFB02465B
:101EE0003B69D31A022B01D903235CE0114B1B6819
:101EF00003F00073002BF0D054E0104B00221A6066
:101F0000FFF72CFB386108E0FFF728FB02463B692E
:101F1000D31A022B01D9032345E0064B1B6803F0BB
:101F20000073002BF0D13DE07B689B69012B07D14A
:101F3000012338E000380240007000406000474252
:101F40001B4B5B68FB607B689B69012B28D0FB689F
:101F500003F480027B68DB699A4221D1FB6803F0BD
:101F60003F027B681B6A9A421AD1FA6847F6C0732F
:101F700013407A68526A9201934211D1FB6803F4CC
:101F800040327B689B6A5B08013B1B049A4207D185
:101F9000FB6803F070627B68DB6A1B069A4201D023
:101FA000012300E0002318461837BD4680BD00BF5E
:101FB0000038024080B584B000AF786039607B683B
:101FC000002B01D10123CCE0684B1B6803F0070311
:101FD0003A689A420CD9654B3A68D2B21A70634B90
:101FE0001B6803F007033A689A4201D00123B8E066
:101FF0007B681B6803F00203002B20D07B681B6802
:1020000003F00403002B05D0594B9B68584A43F456
:10201000E05393607B681B6803F00803002B05D036
:10202000534B9B68524A43F460439360504B9B6808
:1020300023F0F0027B689B684D4913438B607B68FB
:102040001B6803F00103002B44D07B685B68012B05
:1020500007D1474B1B6803F40033002B19D1012330
:102060007FE07B685B68022B03D07B685B68032B97
:1020700007D13F4B1B6803F00073002B09D10123EC
:102080006FE03B4B1B6803F00203002B01D10123DF
:1020900067E0374B9B6823F003027B685B68344939
:1020A00013438B60FFF75AFAF8600AE0FFF756FA1D
:1020B0000246FB68D31A41F28832934201D90323C6
:1020C0004FE02B4B9B6803F00C027B685B689B0026
:1020D0009A42EBD1254B1B6803F007033A689A42FA
:1020E0000CD2224B3A68D2B21A70204B1B6803F014
:1020F00007033A689A4201D0012332E07B681B68EB
:1021000003F00403002B08D0194B9B6823F4E05222
:102110007B68DB68164913438B607B681B6803F0A0
:102120000803002B09D0124B9B6823F460427B68A4
:102130001B69DB000E4913438B6000F021F8024657
:102140000B4B9B681B0903F00F030A49CB5C22FA77
:1021500003F3094A1360094B1B681846FFF7BAF9E5
:10216000002318461037BD4680BD00BF003C02402A
:1021700000380240C0430008000000200400002096
:102180002DE9B04F90B000AF00237B630023FB63C9
:1021900000233B630023BB63594B9B6803F00C0394
:1021A000082B0DD0082B00F2A180002B02D0042BAD
:1021B00003D09BE0534BBB639BE0534BBB6398E066
:1021C0004F4B5B6803F03F037B634D4B5B6803F44D
:1021D0008003002B28D04A4B5B689B0900223B629E
:1021E0007A623B6AC3F308000021474B03FB01F20C
:1021F000002300FB03F31344434AA0FB0212FA62DC
:102200000A46BA62FA6A1344FB627B6B0022BB6126
:10221000FA61D7E90623D7E90A01FEF73FFB024638
:102220000B461346FB6353E0354B5B689B0900226A
:102230003B617A613B69C3F3080A4FF0000B5246D9
:102240005B464FF000004FF00001590141EAD261B6
:10225000500102460B46B2EB0A0863EB0B094FF044
:1022600000024FF000034FEA891343EA98634FEAF4
:102270008812B2EB080463EB09054FF000024FF03F
:102280000003EB0043EA5473E20014461D4614EBCE
:102290000A033B6045EB0B037B604FF000024FF0FD
:1022A0000003D7E9004529468B02214643EA9153B2
:1022B00021468A02104619467B6B0022BB60FA60F9
:1022C000D7E90223FEF7EAFA02460B461346FB6300
:1022D0000B4B5B681B0C03F0030301335B003B6398
:1022E000FA6B3B6BB2FBF3F3BB6302E0054BBB63E2
:1022F00000BFBB6B18464037BD46BDE8B08F00BF7E
:10230000003802400024F40040787D0180B400AF22
:10231000034B1B681846BD465DF8047B704700BF41
:102320000000002080B500AFFFF7F0FF0246054B2C
:102330009B689B0A03F007030349CB5C22FA03F373
:10234000184680BD00380240D043000880B500AF79
:10235000FFF7DCFF0246054B9B685B0B03F00703AE
:102360000349CB5C22FA03F3184680BD00380240D3
:10237000D043000880B582B000AF78607B68002B46
:1023800001D1012341E07B6893F83D30DBB2002BA3
:1023900006D17B68002283F83C207868FEF7F0FEC7
:1023A0007B68022283F83D207B681A687B680433CF
:1023B0001946104600F050FC7B68012283F8462045
:1023C0007B68012283F83E207B68012283F83F204E
:1023D0007B68012283F840207B68012283F841203A
:1023E0007B68012283F842207B68012283F8432026
:1023F0007B68012283F844207B68012283F8452012
:102400007B68012283F83D20002318460837BD462B
:1024100080BD000080B485B000AF78607B6893F821
:102420003D30DBB2012B01D001233CE07B6802226E
:1024300083F83D207B681B681E4A934218D07B6856
:102440001B68B3F1804F13D07B681B681A4A934214
:102450000ED07B681B68194A934209D07B681B68C1
:10246000174A934204D07B681B68164A934211D1E5
:102470007B681B689B6803F00703FB60FB68062B07
:1024800010D07B681B681A687B681B6842F00102E9
:102490001A6007E07B681B681A687B681B6842F05B
:1024A00001021A60002318461437BD465DF8047B0C
:1024B000704700BF000001400004004000080040D9
:1024C000000C00400040014080B582B000AF786051
:1024D0007B68002B01D1012341E07B6893F83D30FC
:1024E000DBB2002B06D17B68002283F83C207868A1
:1024F00000F039F87B68022283F83D207B681A6877
:102500007B6804331946104600F0A6FB7B68012265
:1025100083F846207B68012283F83E207B680122F5
:1025200083F83F207B68012283F840207B680122EA
:1025300083F841207B68012283F842207B680122D6
:1025400083F843207B68012283F844207B680122C2
:1025500083F845207B68012283F83D20002318463C
:102560000837BD4680BD80B483B000AF786000BF3F
:102570000C37BD465DF8047B7047000080B584B021
:1025800000AF786039603B68002B09D17B6893F815
:102590003E30DBB2012B14BF01230023DBB222E06B
:1025A0003B68042B09D17B6893F83F30DBB2012BE9
:1025B00014BF01230023DBB215E03B68082B09D1CF
:1025C0007B6893F84030DBB2012B14BF012300235A
:1025D000DBB208E07B6893F84130DBB2012B14BF1B
:1025E00001230023DBB2002B01D0012368E03B680C
:1025F000002B04D17B68022283F83E2013E03B6865
:10260000042B04D17B68022283F83F200BE03B6857
:10261000082B04D17B68022283F8402003E07B680A
:10262000022283F841207B681B6801223968184622
:1026300000F0B8FD7B681B68234A934207D17B6892
:102640001B685A6C7B681B6842F400425A647B68C2
:102650001B681D4A934218D07B681B68B3F1804FFA
:1026600013D07B681B68194A93420ED07B681B68A5
:10267000174A934209D07B681B68164A934204D0DC
:102680007B681B68144A934211D17B681B689B6866
:1026900003F00703FB60FB68062B10D07B681B6808
:1026A0001A687B681B6842F001021A6007E07B68C9
:1026B0001B681A687B681B6842F001021A600023DD
:1026C00018461037BD4680BD0000014000040040A0
:1026D00000080040000C00400040014080B586B07A
:1026E00000AF786039607B68002B01D1012397E04F
:1026F0007B6893F83D30DBB2002B06D17B6800226B
:1027000083F83C207868FEF75DFD7B68022283F841
:102710003D207B681B689B687A68126823F48043BD
:1027200023F0070393607B681A687B6804331946BB
:10273000104600F091FA7B681B689B687B617B68A0
:102740001B689B693B617B681B681B6AFB603B687D
:102750001B687A6913437B613B6923F4407323F060
:1027600003033B613B689A683B689B691B02134308
:102770003A6913433B613B6923F4406323F00C0344
:102780003B613B6923F4704323F0F0033B613B68FA
:10279000DA683B68DB691B0213433A6913433B6108
:1027A0003B681B691A013B681B6A1B0313433A69A8
:1027B00013433B61FB6823F02203FB60FB6823F0BB
:1027C0008803FB603B685A683B685B691B011343E5
:1027D000FA681343FB607B681B687A699A607B68C0
:1027E0001B683A699A617B681B68FA681A627B68A1
:1027F000012283F846207B68012283F83E207B6813
:10280000012283F83F207B68012283F842207B6805
:10281000012283F843207B68012283F83D200023B6
:1028200018461837BD4680BD80B584B000AF7860CB
:1028300039607B6893F83E30FB737B6893F83F30D8
:10284000BB737B6893F842307B737B6893F84330AB
:102850003B733B68002B10D1FB7B012B02D17B7BB0
:10286000012B01D0012369E07B68022283F83E201E
:102870007B68022283F8422031E03B68042B10D1B0
:10288000BB7B012B02D13B7B012B01D0012355E007
:102890007B68022283F83F207B68022283F8432072
:1028A0001DE0FB7B012B08D1BB7B012B05D17B7B82
:1028B000012B02D13B7B012B01D001233EE07B6841
:1028C000022283F83E207B68022283F83F207B6847
:1028D000022283F842207B68022283F843203B686F
:1028E000002B03D03B68042B08D00FE07B681B68EB
:1028F00001220021184600F055FC16E07B681B6899
:1029000001220421184600F04DFC0EE07B681B6894
:1029100001220021184600F045FC7B681B6801225B
:102920000421184600F03EFC00BF7B681B681A6853
:102930007B681B6842F001021A60002318461037BA
:10294000BD4680BD80B586B000AFF860B9607A60E2
:102950000023FB75FB6893F83C30012B01D1022367
:10296000AEE0FB68012283F83C207B680C2B00F270
:102970009F8001A252F823F0AD290008B12A000877
:10298000B12A0008B12A0008ED290008B12A000880
:10299000B12A0008B12A00082F2A0008B12A00082D
:1029A000B12A0008B12A00086F2A0008FB681B68DA
:1029B000B968184600F0D0F9FB681B689A69FB6893
:1029C0001B6842F008029A61FB681B689A69FB6801
:1029D0001B6822F004029A61FB681B689969BB6856
:1029E0001A69FB681B680A439A6164E0FB681B680C
:1029F000B968184600F016FAFB681B689A69FB680C
:102A00001B6842F400629A61FB681B689A69FB6864
:102A10001B6822F480629A61FB681B689969BB6835
:102A20001B691A02FB681B680A439A6143E0FB6852
:102A30001B68B968184600F061FAFB681B68DA6920
:102A4000FB681B6842F00802DA61FB681B68DA6900
:102A5000FB681B6822F00402DA61FB681B68D96915
:102A6000BB681A69FB681B680A43DA6123E0FB68EC
:102A70001B68B968184600F0ABFAFB681B68DA6996
:102A8000FB681B6842F40062DA61FB681B68DA6964
:102A9000FB681B6822F48062DA61FB681B68D969F5
:102AA000BB681B691A02FB681B680A43DA6102E013
:102AB0000123FB7500BFFB68002283F83C20FB7DEF
:102AC00018461837BD4680BD80B584B000AF786029
:102AD00039600023FB737B6893F83C30012B01D1F4
:102AE0000223B4E07B68012283F83C207B68022249
:102AF00083F83D207B681B689B68BB60BB6823F044
:102B00007703BB60BB6823F47F43BB607B681B68B3
:102B1000BA689A603B681B68B3F5005F3ED0B3F5B6
:102B2000005F00F28780B3F5805F00F08680B3F528
:102B3000805F7FD8702B1AD0702B7BD8602B50D041
:102B4000602B77D8502B3CD0502B73D8402B58D0CB
:102B5000402B6FD8302B64D0302B6BD8202B60D01B
:102B6000202B67D8002B5CD0102B5AD062E07B68FA
:102B700018683B6899683B685A683B68DB6800F0F6
:102B8000F1FA7B681B689B68BB60BB6843F0770306
:102B9000BB607B681B68BA689A604FE07B68186806
:102BA0003B6899683B685A683B68DB6800F0DAFA72
:102BB0007B681B689A687B681B6842F480429A6055
:102BC0003CE07B6818683B6859683B68DB681A46DC
:102BD00000F04EFA7B681B685021184600F0A7FAF7
:102BE0002CE07B6818683B6859683B68DB681A46CC
:102BF00000F06DFA7B681B686021184600F097FAB8
:102C00001CE07B6818683B6859683B68DB681A46BB
:102C100000F02EFA7B681B684021184600F087FA06
:102C20000CE07B681A683B681B681946104600F088
:102C30007EFA03E00123FB7300E000BF7B68012202
:102C400083F83D207B68002283F83C20FB7B1846FC
:102C50001037BD4680BD000080B485B000AF7860FD
:102C600039607B681B68FB607B68344A93420FD0F5
:102C70007B68B3F1804F0BD07B68314A934207D019
:102C80007B68304A934203D07B682F4A934208D135
:102C9000FB6823F07003FB603B685B68FA681343D2
:102CA000FB607B68254A93421BD07B68B3F1804F61
:102CB00017D07B68224A934213D07B68214A934203
:102CC0000FD07B68204A93420BD07B681F4A934207
:102CD00007D07B681E4A934203D07B681D4A93420B
:102CE00008D1FB6823F44073FB603B68DB68FA683B
:102CF0001343FB60FB6823F080023B685B6913436E
:102D0000FB607B68FA681A603B689A687B68DA62E5
:102D10003B681A687B689A627B68084A934203D1D1
:102D20003B681A697B681A637B6801225A6100BF9D
:102D30001437BD465DF8047B704700BF00000140BA
:102D40000004004000080040000C0040004001402A
:102D5000004401400048014080B487B000AF786073
:102D600039607B681B6A23F001027B681A627B680A
:102D70001B6A7B617B685B683B617B689B69FB606E
:102D8000FB6823F07003FB60FB6823F00303FB6028
:102D90003B681B68FA681343FB607B6923F00203FE
:102DA0007B613B689B687A6913437B617B681C4A43
:102DB00093420CD17B6923F008037B613B68DB689D
:102DC0007A6913437B617B6923F004037B617B6831
:102DD000134A934211D13B6923F480733B613B69F1
:102DE00023F400733B613B685B693A6913433B61C1
:102DF0003B689B693A6913433B617B683A695A6057
:102E00007B68FA689A613B685A687B685A637B689A
:102E10007A691A6200BF1C37BD465DF8047B7047B3
:102E20000000014080B487B000AF786039607B68F3
:102E30001B6A23F010027B681A627B681B6A7B6145
:102E40007B685B683B617B689B69FB60FB6823F484
:102E5000E043FB60FB6823F44073FB603B681B6846
:102E60001B02FA681343FB607B6923F020037B613C
:102E70003B689B681B017A6913437B617B681E4A30
:102E800093420DD17B6923F080037B613B68DB6853
:102E90001B017A6913437B617B6923F040037B61EB
:102EA0007B68154A934213D13B6923F480633B61ED
:102EB0003B6923F400633B613B685B699B003A69B3
:102EC00013433B613B689B699B003A6913433B6139
:102ED0007B683A695A607B68FA689A613B685A680D
:102EE0007B689A637B687A691A6200BF1C37BD46AB
:102EF0005DF8047B704700BF0000014080B487B0DC
:102F000000AF786039607B681B6A23F480727B684D
:102F10001A627B681B6A7B617B685B683B617B68CC
:102F2000DB69FB60FB6823F07003FB60FB6823F048
:102F30000303FB603B681B68FA681343FB607B6913
:102F400023F400737B613B689B681B027A6913431F
:102F50007B617B681D4A93420DD17B6923F400633A
:102F60007B613B68DB681B027A6913437B617B6989
:102F700023F480637B617B68144A934213D13B69DD
:102F800023F480533B613B6923F400533B613B686E
:102F90005B691B013A6913433B613B689B691B01F9
:102FA0003A6913433B617B683A695A607B68FA6807
:102FB000DA613B685A687B68DA637B687A691A620F
:102FC00000BF1C37BD465DF8047B70470000014020
:102FD00080B487B000AF786039607B681B6A23F4E7
:102FE00080527B681A627B681B6A3B617B685B6806
:102FF0007B617B68DB69FB60FB6823F4E043FB607B
:10300000FB6823F44073FB603B681B681B02FA6893
:103010001343FB603B6923F400533B613B689B68AF
:103020001B033A6913433B617B68104A934209D101
:103030007B6923F480437B613B685B699B017A6910
:1030400013437B617B687A695A607B68FA68DA614E
:103050003B685A687B681A647B683A691A6200BFE9
:103060001C37BD465DF8047B704700BF000001407F
:1030700080B487B000AFF860B9607A60FB681B6A03
:103080007B61FB681B6A23F00102FB681A62FB6824
:103090009B693B613B6923F0F0033B617B681B014B
:1030A0003A6913433B617B6923F00A037B617A69C8
:1030B000BB6813437B61FB683A699A61FB687A6974
:1030C0001A6200BF1C37BD465DF8047B704780B4B0
:1030D00087B000AFF860B9607A60FB681B6A23F0C4
:1030E0001002FB681A62FB689B697B61FB681B6AC4
:1030F0003B617B6923F470437B617B681B037A69C6
:1031000013437B613B6923F0A0033B61BB681B0158
:103110003A6913433B61FB687A699A61FB683A69D3
:103120001A6200BF1C37BD465DF8047B704780B44F
:1031300085B000AF786039607B689B68FB60FB6896
:1031400023F07003FB603A68FB68134343F0070306
:10315000FB607B68FA689A6000BF1437BD465DF873
:10316000047B704780B487B000AFF860B9607A60C4
:103170003B60FB689B687B617B6923F47F437B61D9
:103180003B681A027B681A43BB6813437A6913438E
:103190007B61FB687A699A6000BF1C37BD465DF8A9
:1031A000047B704780B487B000AFF860B9607A6084
:1031B000BB6803F01F03012202FA03F37B61FB6883
:1031C0001A6A7B69DB431A40FB681A62FB681A6A59
:1031D000BB6803F01F03796801FA03F31A43FB6825
:1031E0001A6200BF1C37BD465DF8047B70470000C3
:1031F00080B485B000AF786039607B6893F83C306C
:10320000012B01D1022350E07B68012283F83C208E
:103210007B68022283F83D207B681B685B68FB604B
:103220007B681B689B68BB60FB6823F07003FB60D6
:103230003B681B68FA681343FB607B681B68FA688D
:103240005A607B681B681C4A934218D07B681B68D5
:10325000B3F1804F13D07B681B68184A93420ED09D
:103260007B681B68164A934209D07B681B68154A25
:10327000934204D07B681B68134A93420CD1BB680D
:1032800023F08003BB603B685B68BA681343BB6094
:103290007B681B68BA689A607B68012283F83D20CE
:1032A0007B68002283F83C20002318461437BD4673
:1032B0005DF8047B704700BF00000140000400403F
:1032C00000080040000C00400040014080B582B082
:1032D00000AF78607B68002B01D101233FE07B6861
:1032E00093F83D30DBB2002B06D17B68002283F8D7
:1032F0003C207868FDF7E8FF7B68242283F83D20B6
:103300007B681B68DA687B681B6822F40052DA600D
:10331000786800F029F97B681B681A697B681B686C
:1033200022F490421A617B681B685A697B681B68AB
:1033300022F02A025A617B681B68DA687B681B6886
:1033400042F40052DA607B6800221A647B68202213
:1033500083F83D207B68202283F83E200023184616
:103360000837BD4680BD80B58AB002AFF860B9604D
:103370003B601346FB8000237B61FB6893F83D3084
:10338000DBB2202B7CD1BB68002B02D0FB88002B4A
:1033900001D1012375E0FB6893F83C30012B01D18A
:1033A00002236EE0FB68012283F83C20FB680022C8
:1033B0001A64FB68212283F83D20FEF7CFF878617C
:1033C000FB68FA889A84FB68FA88DA84FB689B6851
:1033D000B3F5805F08D1FB681B69002B04D1002383
:1033E000FB61BB68BB6103E0BB68FB610023BB61A1
:1033F000FB68002283F83C202AE03B6800937B694D
:1034000000228021F86800F040F80346002B01D02C
:10341000032336E0FB69002B0BD1BB691B881A46DE
:10342000FB681B68C2F308025A60BB690233BB61C8
:1034300007E0FB691A78FB681B685A60FB69013377
:10344000FB61FB68DB8C9BB2013B9AB2FB68DA84C0
:10345000FB68DB8C9BB2002BCFD13B6800937B6970
:1034600000224021F86800F010F80346002B01D03C
:10347000032306E0FB68202283F83D20002300E0C0
:10348000022318462037BD4680BD80B590B000AFFE
:10349000F860B9603B601346FB7150E0BB6CB3F160
:1034A000FF3F4CD0BB6C002B07D0FEF757F802460D
:1034B0003B68D31ABA6C9A4241D2FB681B680C3342
:1034C000BB62BB6A53E8003F7B627B6A23F4D07324
:1034D000FB63FB681B680C33FA6B7A633B63396BE5
:1034E0007A6B41E80023FB62FB6A002BE5D1FB68A5
:1034F0001B6814337B617B6953E8003F3B613B6988
:1035000023F00103BB63FB681B681433BA6B3A6298
:10351000FB61F9693A6A41E80023BB61BB69002B92
:10352000E5D1FB68202283F83D20FB68202283F848
:103530003E20FB68002283F83C2003230FE0FB6859
:103540001B681A68BB681340BA689A420CBF012313
:103550000023DBB21A46FB799A429FD0002318461B
:103560004037BD4680BD00002DE9B04FC0B000AF70
:10357000C7F8F400D7F8F4301B681B6923F44050F7
:10358000D7F8F430D968D7F8F4301A6840EA010364
:103590001361D7F8F4309A68D7F8F4301B691A43EE
:1035A000D7F8F4305B691A43D7F8F430DB6913437A
:1035B000C7F8F830D7F8F4301B68DB6823F41641FD
:1035C00021F00C01D7F8F4301A68D7F8F8300B4323
:1035D000D360D7F8F4301B685B6923F44070D7F8E8
:1035E000F4309969D7F8F4301A6840EA010353615E
:1035F000D7F8F4301A688F4B9A4205D0D7F8F430D8
:103600001A688D4B9A4204D1FEF7A0FEC7F8FC0061
:1036100003E0FEF787FEC7F8FC00D7F8F430DB695B
:10362000B3F5004F40F00C81D7F8FC300022C7F80A
:10363000E830C7F8EC20D7E93A4522462B469118E6
:10364000B9655B41FB65D7E91623214612EB0108FA
:10365000294643EB01094FF000024FF000034FEA07
:10366000C90343EA58734FEAC80290469946234675
:1036700018EB0303C7F8E0302B4649EB0303C7F808
:10368000E430D7F8F4305B680022C7F8D830C7F8C8
:10369000DC20D7E936120B46DB183B65134642EBBC
:1036A00003037B65D7E91423D7E93801FDF7F6F862
:1036B00002460B46614BA3FB02235B091C01D7F8B2
:1036C000FC300022C7F8D030C7F8D420D7E93489BD
:1036D00042464B469118B9645B41FB64D7E912231B
:1036E000414612EB010A494643EB010B4FF0000241
:1036F0004FF000034FEACB0343EA5A734FEACA0282
:1037000092469B4643461AEB0303C7F8C8304B4624
:103710004BEB0303C7F8CC30D7F8F4305B680022DA
:10372000C7F8C030C7F8C420D7E930120B46DB1801
:103730003B64134642EB03037B64D7E91023D7E9CC
:103740003201FDF7ABF802460B4611463B4BA3FB9B
:1037500001235B09642202FB03F3CB1ADB0003F1B4
:103760003202364BA3FB02235B095B0003F4F873C0
:103770001C44D7F8FC300022C7F8B830C7F8BC208A
:10378000D7E92E8942464B469118B9635B41FB63EA
:10379000D7E90E2341465118396349464B417B63B3
:1037A0004FF000024FF00003D7E90CAB5946CB00B5
:1037B000514643EA51735146CA0010461946034622
:1037C00042469B18C7F8B0304B460A4642EB03030B
:1037D000C7F8B430D7F8F4305B680022C7F8A830D7
:1037E000C7F8AC20D7E92A120B46DB18BB62134698
:1037F00042EB0303FB62D7E90A23D7E92C01FDF76B
:103800004DF802460B460D4BA3FB02135B096421E6
:1038100001FB03F3D31ADB003233084AA2FB032374
:103820005B0903F00702D7F8F4301B6822449A6062
:1038300005E100BF00100140001401401F85EB515D
:10384000D7F8FC300022C7F8A030C7F8A420D7E989
:10385000288942464B46911839625B417B62D7E921
:10386000082341465418494643EB01054FF0000236
:103870004FF00003EB0043EA5473E20014461D4688
:103880004346E318C7F898304B4645EB0303C7F8A7
:103890009C30D7F8F4305B680022C7F89030C7F846
:1038A00094204FF000024FF00003D7E92445294649
:1038B0008B00214643EA917321468A00D7E926010D
:1038C000FCF7ECFF02460B46604BA3FB02235B09AF
:1038D0001C01D7F8FC300022C7F88830C7F88C20CC
:1038E000D7E9228942464B469118B9615B41FB6199
:1038F000D7E9062341465118396149464B417B615E
:103900004FF000024FF00003D7E904AB5946CB005B
:10391000514643EA51735146CA00104619460346C0
:1039200042469B18C7F880304B460A4642EB0303D9
:10393000C7F88430D7F8F4305B680022BB67FA67B9
:103940004FF000024FF00003D7E91E8949468B0073
:10395000414643EA917341468A00D7E92001FCF7CA
:103960009DFF02460B46394BA3FB02135B09642102
:1039700001FB03F3D31A1B013233344AA2FB0323A6
:103980005B0903F0F0031C44D7F8FC3000223B67CE
:103990007A67D7E91C8942464B469118B9605B416A
:1039A000FB60D7E9022341465118396049464B4133
:1039B0007B604FF000024FF00003D7E900AB59469F
:1039C000CB00514643EA51735146CA00104619468E
:1039D000034642469B18BB664B460A4642EB03032E
:1039E000FB66D7F8F4305B6800223B667A664FF0DE
:1039F00000024FF00003D7E9188949468B00414681
:103A000043EA917341468A00D7E91A01FCF746FF61
:103A100002460B460D4BA3FB02135B09642101FB1D
:103A200003F3D31A1B013233084AA2FB03235B09B9
:103A300003F00F02D7F8F4301B6822449A6000BFED
:103A400007F58077BD46BDE8B08F00BF1F85EB51FD
:103A5000014B1868704700BF0C00002070B50D4D79
:103A60000D4C641BA4100026A64209D10B4D0C4C32
:103A700000F08EFC641BA4100026A64205D170BD88
:103A800055F8043B98470136EEE755F8043B984754
:103A90000136F2E7144400081444000814440008F6
:103AA0001844000802440346934200D1704703F8CB
:103AB000011BF9E70EB400B59CB01DAB0290069057
:103AC0006FF00041094807910491094953F8042B0C
:103AD00005910068019302A900F068F8029B00229A
:103AE0001A701CB05DF804EB03B070470C000020A6
:103AF0000802FFFF2DE9F0478E689E4282460C4681
:103B000090461F4638D88A8912F4906F32D02568C3
:103B10000969A5EB0109656905EB450505EBD57557
:103B200001334B446D109D4238BF1D46530531D5BE
:103B3000294600F063FB064650B90C23CAF8003052
:103B4000A38943F04003A3814FF0FF30BDE8F08725
:103B500021694A4600F0BEFAA38923F4906343F03A
:103B60008003A381266165614E44A5EB09052660AB
:103B7000A5603E46BE4200D93E46206832464146D8
:103B800000F0B6FAA3689B1BA3602368334423604C
:103B90000020DBE72A4600F0A5FB06460028E1D11D
:103BA0002169504600F0BEFAC7E700002DE9F04F4A
:103BB00098468B891B069DB007460D4614460ED5C8
:103BC0000B6963B9402100F019FB2860286120B916
:103BD0000C233B604FF0FF30D1E040236B610023AA
:103BE000099320238DF82930CDF80C803023DFF89D
:103BF000A8818DF82A304FF0010923469A4613F820
:103C0000012B0AB1252AF9D1BAEB040B0BD05B4684
:103C1000224629463846FFF76DFF013000F0AA80A2
:103C2000099A5A4409929AF80030002B00F0A280B9
:103C300000234FF0FF32CDE905230AF1010A049376
:103C400007938DF853301A935446052214F8011B3C
:103C50005148FCF7C5FA049AD8B9D00644BF2023CE
:103C60008DF85330110744BF2B238DF853309AF849
:103C700000302A2B15D0079A544600204FF00A0C2A
:103C8000214611F8013B303B092B4ED9B0B10792C8
:103C900014E0A0EB080309FA03F313430493A246CC
:103CA000D2E7039B191D1B680391002BBBBF5B422E
:103CB00042F0020207930793B8BF049223782E2B99
:103CC0000CD163782A2B35D1039B1A1D1B680392F4
:103CD000002BB8BF4FF0FF3302340593DFF8C8A0C4
:103CE000217803225046FCF77BFA40B14023A0EB39
:103CF0000A0003FA00F0049B03430134049314F810
:103D0000011B26488DF828100622FCF769FA0028C6
:103D100038D0234B1BBB039B073323F00703083327
:103D20000393099B3344099367E70CFB02320C466B
:103D30000120A5E700230134059319464FF00A0C32
:103D4000204610F8012B303A092A03D9002BC5D0A0
:103D50000591C3E70CFB012104460123F0E703AB07
:103D600000932A460F4B04A93846AFF30080421C4B
:103D70000646D6D1AB895B063FF52CAF09981DB03E
:103D8000BDE8F08F03AB00932A46064B04A93846E2
:103D900000F07AF8EBE700BFD8430008E2430008E0
:103DA00000000000F53A0008DE4300082DE9F04766
:103DB000164699468A680B69DDF820809342B8BFA1
:103DC0001346336091F8432007460C460AB101338D
:103DD00033602368990642BF336802333360256835
:103DE00015F0060506D104F1190AE36832689B1A3A
:103DF000AB4226DC94F84320131E226818BF01232F
:103E000092062BD404F1430249463846C04701309C
:103E10001ED02368E568326803F00603042B08BF50
:103E2000AD1AA36822690CBF25EAE5750025934207
:103E3000C4BF9B1AED1800261A34B5421AD10020CF
:103E400008E00123524649463846C047013003D1B5
:103E50004FF0FF30BDE8F0870135C6E7E1185A1C86
:103E6000302081F84300224494F8451082F8431032
:103E70000233C7E70123224649463846C04701308E
:103E8000E6D00136D9E700002DE9FF470F7E0C9DF3
:103E9000782F914680460C469A4601F1430207D896
:103EA000622F0AD8002F00F0D880582F00F0A3808E
:103EB00004F1420584F842703AE0A7F16303152B40
:103EC000F6D801A151F823F0213F0008353F000842
:103ED000B13E0008B13E0008B13E0008B13E000806
:103EE000353F0008B13E0008B13E0008B13E000871
:103EF000B13E000841400008653F0008234000082B
:103F0000B13E0008B13E000863400008B13E000821
:103F1000653F0008B13E0008B13E00082B40000894
:103F20002B681A1D1B682A6004F1420584F8423090
:103F30000123A3E020682968060601F104030AD5DD
:103F40000E682B60002E03DA2D23764284F843306E
:103F50005E480A2319E00E682B6010F0400F18BF6E
:103F600036B2EFE72B682068191D2960010601D5DC
:103F70001E6802E04606FBD51E8854486F2F0CBF12
:103F800008230A23002184F843106568A560002DEA
:103F9000A2BF216821F0040121600EB9002D4DD08F
:103FA0001546B6FBF3F103FB1167C75D05F8017D0C
:103FB0003746BB420E46F4D9082B0BD12368DE07E7
:103FC00008D5236961689942DEBF302305F8013CBA
:103FD00005F1FF35521B2261CDF800A04B4603AA24
:103FE00021464046FFF7E2FE01304CD14FF0FF3052
:103FF00004B0BDE8F087354881F84570296823682A
:1040000051F8046B29601D0614D5DF0744BF43F047
:10401000200323601EB9236823F0200323601023AC
:10402000B0E7236843F0200323607823284884F80E
:104030004530E3E7590648BFB6B2E6E71546BBE7A9
:104040002B6826686169181D286035061B6801D534
:10405000196002E07006FBD5198000232361154624
:10406000BAE72B681A1D2A601D686268002128467D
:10407000FCF7B6F808B1401B606063682361002359
:1040800084F84330A8E723692A4649464046D0478A
:104090000130ABD023689B0713D4E068039B9842A0
:1040A000B8BF1846A4E70123324649464046D047E8
:1040B00001309BD00135E36803995B1AAB42F2DC17
:1040C000EBE7002504F11906F5E700BFE943000816
:1040D000FA4300080A44914200F1FF3300D17047CF
:1040E00010B511F8014B03F8014F9142F9D110BD01
:1040F000884210B501EB020402D98442234607D856
:10410000431EA14208D011F8012B03F8012FF8E754
:10411000024401468A4200D110BD13F8014D02F855
:10412000014DF7E737B5002944D051F8043C019020
:10413000002BA1F10404B8BFE41800F013F91E4AE3
:104140000198136833B96360146003B0BDE8304070
:1041500000F00EB9A34208D9256861198B4201BF4E
:1041600019685B6849192160EDE71A465B680BB175
:10417000A342FAD911685518A5420BD124682144ED
:104180005418A3421160E0D11C685B68536021445D
:104190001160DAE702D90C230360D6E725686119BC
:1041A0008B4204BF19685B68636004BF49192160D2
:1041B0005460CAE703B030BD6801002070B50E4EF0
:1041C0000C463168054611B900F0BCF83060214654
:1041D000284600F0B7F8431C0AD0C41C24F003049E
:1041E000A04207D0211A284600F0ACF8013001D1D6
:1041F0004FF0FF34204670BD6C0100202DE9F041E6
:10420000CD1C25F0030508350C2D38BF0C25002DDD
:10421000074601DBA94205D90C233B600026304646
:10422000BDE8F0812E4E00F09DF833681C4634BB8B
:1042300029463846FFF7C2FF431C04464DD1346877
:104240002646002E40D123683146384604EB030849
:1042500000F078F880453AD1216803356D1A25F0D1
:10426000030508350C2D38BF0C2529463846FFF7C5
:10427000A5FF01302BD023682B4423600EE0226879
:10428000521B1ED40B2A16D96119A342256018BFF0
:104290005960636808BF316062514B60384604F171
:1042A0000B0600F065F826F00706231DF21AB6D0BB
:1042B0009B1BA350B3E76268A3420CBF32605A60F5
:1042C000ECE723466468B2E734467668B9E70C2326
:1042D0003B60384600F04CF8A1E72560DEE700BF00
:1042E000680100202DE9F041804614460E4621B9B0
:1042F000BDE8F0411146FFF781BF2AB9FFF712FF71
:1043000025462846BDE8F08100F038F8844207468B
:1043100002D8B4EB500F12D821464046FFF76EFF8B
:1043200005460028EDD0BC422246314628BF3A4619
:10433000FFF7D0FE31464046FFF7F4FEE1E7354691
:10434000DFE7000038B5064D0023044608462B6021
:10435000FDF72CF8431C02D12B6803B1236038BD54
:1043600070010020014800F011B800BF7401002066
:10437000014800F00CB800BF7401002051F8043C63
:10438000181F002BBCBF0B58C018704770477047F0
:10439000F8B500BFF8BC08BC9E467047F8B500BF32
:0843A000F8BC08BC9E46704702
:1043A80025366C642025366C642025366420253635
:1043B8006C640A0D0000000000000000000000000E
:1043C80001020304060708090000000001020304B3
:1043D800232D302B2000686C4C00656667454647E6
:1043E8000030313233343536373839414243444569
:1043F80046003031323334353637383961626364D8
:0444080065660000E5
:08440C00C0C4FF7F01000000A5
:04441400C5010008D6
:04441800A1010008F6
:10441C000024F40010000000010000001000002037
:10442C000000000000000000000000000000000080
:10443C000000000000000000000000000000000070
:10444C000000000000000000000000000000000060
:10445C000000000000000000000000000000000050
:10446C000000000000000000000000000000000040
:10447C000000000000000000000000000000000030
:040000050800143D9E
:00000001FF
